{
  "_format": "hh-sol-artifact-1",
  "contractName": "MyEpicNFT",
  "sourceName": "contracts/MyEpicNFT.sol",
  "abi": [
    {
      "inputs": [],
      "stateMutability": "nonpayable",
      "type": "constructor"
    },
    {
      "anonymous": false,
      "inputs": [
        {
          "indexed": true,
          "internalType": "address",
          "name": "owner",
          "type": "address"
        },
        {
          "indexed": true,
          "internalType": "address",
          "name": "approved",
          "type": "address"
        },
        {
          "indexed": true,
          "internalType": "uint256",
          "name": "tokenId",
          "type": "uint256"
        }
      ],
      "name": "Approval",
      "type": "event"
    },
    {
      "anonymous": false,
      "inputs": [
        {
          "indexed": true,
          "internalType": "address",
          "name": "owner",
          "type": "address"
        },
        {
          "indexed": true,
          "internalType": "address",
          "name": "operator",
          "type": "address"
        },
        {
          "indexed": false,
          "internalType": "bool",
          "name": "approved",
          "type": "bool"
        }
      ],
      "name": "ApprovalForAll",
      "type": "event"
    },
    {
      "anonymous": false,
      "inputs": [
        {
          "indexed": false,
          "internalType": "address",
          "name": "sender",
          "type": "address"
        },
        {
          "indexed": false,
          "internalType": "uint256",
          "name": "tokenId",
          "type": "uint256"
        }
      ],
      "name": "NewNFTMinted",
      "type": "event"
    },
    {
      "anonymous": false,
      "inputs": [
        {
          "indexed": true,
          "internalType": "address",
          "name": "from",
          "type": "address"
        },
        {
          "indexed": true,
          "internalType": "address",
          "name": "to",
          "type": "address"
        },
        {
          "indexed": true,
          "internalType": "uint256",
          "name": "tokenId",
          "type": "uint256"
        }
      ],
      "name": "Transfer",
      "type": "event"
    },
    {
      "inputs": [
        {
          "internalType": "address",
          "name": "to",
          "type": "address"
        },
        {
          "internalType": "uint256",
          "name": "tokenId",
          "type": "uint256"
        }
      ],
      "name": "approve",
      "outputs": [],
      "stateMutability": "nonpayable",
      "type": "function"
    },
    {
      "inputs": [
        {
          "internalType": "address",
          "name": "owner",
          "type": "address"
        }
      ],
      "name": "balanceOf",
      "outputs": [
        {
          "internalType": "uint256",
          "name": "",
          "type": "uint256"
        }
      ],
      "stateMutability": "view",
      "type": "function"
    },
    {
      "inputs": [
        {
          "internalType": "uint256",
          "name": "tokenId",
          "type": "uint256"
        }
      ],
      "name": "getApproved",
      "outputs": [
        {
          "internalType": "address",
          "name": "",
          "type": "address"
        }
      ],
      "stateMutability": "view",
      "type": "function"
    },
    {
      "inputs": [
        {
          "internalType": "address",
          "name": "owner",
          "type": "address"
        },
        {
          "internalType": "address",
          "name": "operator",
          "type": "address"
        }
      ],
      "name": "isApprovedForAll",
      "outputs": [
        {
          "internalType": "bool",
          "name": "",
          "type": "bool"
        }
      ],
      "stateMutability": "view",
      "type": "function"
    },
    {
      "inputs": [],
      "name": "makeAnEpicNFT",
      "outputs": [],
      "stateMutability": "nonpayable",
      "type": "function"
    },
    {
      "inputs": [],
      "name": "name",
      "outputs": [
        {
          "internalType": "string",
          "name": "",
          "type": "string"
        }
      ],
      "stateMutability": "view",
      "type": "function"
    },
    {
      "inputs": [
        {
          "internalType": "uint256",
          "name": "tokenId",
          "type": "uint256"
        }
      ],
      "name": "ownerOf",
      "outputs": [
        {
          "internalType": "address",
          "name": "",
          "type": "address"
        }
      ],
      "stateMutability": "view",
      "type": "function"
    },
    {
      "inputs": [
        {
          "internalType": "uint256",
          "name": "tokenId",
          "type": "uint256"
        }
      ],
      "name": "pickRandomColor",
      "outputs": [
        {
          "internalType": "string",
          "name": "",
          "type": "string"
        }
      ],
      "stateMutability": "view",
      "type": "function"
    },
    {
      "inputs": [
        {
          "internalType": "address",
          "name": "from",
          "type": "address"
        },
        {
          "internalType": "address",
          "name": "to",
          "type": "address"
        },
        {
          "internalType": "uint256",
          "name": "tokenId",
          "type": "uint256"
        }
      ],
      "name": "safeTransferFrom",
      "outputs": [],
      "stateMutability": "nonpayable",
      "type": "function"
    },
    {
      "inputs": [
        {
          "internalType": "address",
          "name": "from",
          "type": "address"
        },
        {
          "internalType": "address",
          "name": "to",
          "type": "address"
        },
        {
          "internalType": "uint256",
          "name": "tokenId",
          "type": "uint256"
        },
        {
          "internalType": "bytes",
          "name": "_data",
          "type": "bytes"
        }
      ],
      "name": "safeTransferFrom",
      "outputs": [],
      "stateMutability": "nonpayable",
      "type": "function"
    },
    {
      "inputs": [
        {
          "internalType": "address",
          "name": "operator",
          "type": "address"
        },
        {
          "internalType": "bool",
          "name": "approved",
          "type": "bool"
        }
      ],
      "name": "setApprovalForAll",
      "outputs": [],
      "stateMutability": "nonpayable",
      "type": "function"
    },
    {
      "inputs": [
        {
          "internalType": "bytes4",
          "name": "interfaceId",
          "type": "bytes4"
        }
      ],
      "name": "supportsInterface",
      "outputs": [
        {
          "internalType": "bool",
          "name": "",
          "type": "bool"
        }
      ],
      "stateMutability": "view",
      "type": "function"
    },
    {
      "inputs": [],
      "name": "symbol",
      "outputs": [
        {
          "internalType": "string",
          "name": "",
          "type": "string"
        }
      ],
      "stateMutability": "view",
      "type": "function"
    },
    {
      "inputs": [
        {
          "internalType": "uint256",
          "name": "tokenId",
          "type": "uint256"
        }
      ],
      "name": "tokenURI",
      "outputs": [
        {
          "internalType": "string",
          "name": "",
          "type": "string"
        }
      ],
      "stateMutability": "view",
      "type": "function"
    },
    {
      "inputs": [
        {
          "internalType": "address",
          "name": "from",
          "type": "address"
        },
        {
          "internalType": "address",
          "name": "to",
          "type": "address"
        },
        {
          "internalType": "uint256",
          "name": "tokenId",
          "type": "uint256"
        }
      ],
      "name": "transferFrom",
      "outputs": [],
      "stateMutability": "nonpayable",
      "type": "function"
    }
  ],
  "bytecode": "0x60806040526040518061012001604052806040518060400160405280600681526020017f323634363533000000000000000000000000000000000000000000000000000081525081526020016040518060400160405280600681526020017f326139643866000000000000000000000000000000000000000000000000000081525081526020016040518060400160405280600681526020017f663461323631000000000000000000000000000000000000000000000000000081525081526020016040518060400160405280600681526020017f653736663531000000000000000000000000000000000000000000000000000081525081526020016040518060400160405280600681526020017f303233303437000000000000000000000000000000000000000000000000000081525081526020016040518060400160405280600681526020017f386563616536000000000000000000000000000000000000000000000000000081525081526020016040518060400160405280600681526020017f336130636133000000000000000000000000000000000000000000000000000081525081526020016040518060400160405280600681526020017f666466666236000000000000000000000000000000000000000000000000000081525081526020016040518060400160405280600681526020017f373830303030000000000000000000000000000000000000000000000000000081525081525060089060096200023392919062000434565b50604051806104e001604052806104ba815260200162003b4e6104ba913960099080519060200190620002689291906200049b565b503480156200027657600080fd5b506040518060400160405280600d81526020017f4e46546d617055727567756179000000000000000000000000000000000000008152506040518060400160405280600381526020017f55525900000000000000000000000000000000000000000000000000000000008152508160009080519060200190620002fb9291906200049b565b508060019080519060200190620003149291906200049b565b505050620003626040518060400160405280601e81526020017f54686973206973206d79204e465420636f6e74726163742e20576f61682100008152506200036860201b62000dc71760201c565b620006e6565b62000408816040516024016200037f9190620005fa565b6040516020818303038152906040527f41304fac000000000000000000000000000000000000000000000000000000007bffffffffffffffffffffffffffffffffffffffffffffffffffffffff19166020820180517bffffffffffffffffffffffffffffffffffffffffffffffffffffffff83818316178352505050506200040b60201b60201c565b50565b60008151905060006a636f6e736f6c652e6c6f679050602083016000808483855afa5050505050565b82805482825590600052602060002090810192821562000488579160200282015b8281111562000487578251829080519060200190620004769291906200049b565b509160200191906001019062000455565b5b5090506200049791906200052c565b5090565b828054620004a99062000670565b90600052602060002090601f016020900481019282620004cd576000855562000519565b82601f10620004e857805160ff191683800117855562000519565b8280016001018555821562000519579182015b8281111562000518578251825591602001919060010190620004fb565b5b50905062000528919062000554565b5090565b5b8082111562000550576000818162000546919062000573565b506001016200052d565b5090565b5b808211156200056f57600081600090555060010162000555565b5090565b508054620005819062000670565b6000825580601f10620005955750620005b6565b601f016020900490600052602060002090810190620005b5919062000554565b5b50565b6000620005c6826200061e565b620005d2818562000629565b9350620005e48185602086016200063a565b620005ef81620006d5565b840191505092915050565b60006020820190508181036000830152620006168184620005b9565b905092915050565b600081519050919050565b600082825260208201905092915050565b60005b838110156200065a5780820151818401526020810190506200063d565b838111156200066a576000848401525b50505050565b600060028204905060018216806200068957607f821691505b60208210811415620006a0576200069f620006a6565b5b50919050565b7f4e487b7100000000000000000000000000000000000000000000000000000000600052602260045260246000fd5b6000601f19601f8301169050919050565b61345880620006f66000396000f3fe608060405234801561001057600080fd5b50600436106100f55760003560e01c80636352211e11610097578063b88d4fde11610066578063b88d4fde14610296578063c87b56dd146102b2578063de9d132f146102e2578063e985e9c5146102ec576100f5565b80636352211e146101fc57806370a082311461022c57806395d89b411461025c578063a22cb4651461027a576100f5565b8063095ea7b3116100d3578063095ea7b31461017857806323b872dd1461019457806342842e0e146101b0578063514dc8c6146101cc576100f5565b806301ffc9a7146100fa57806306fdde031461012a578063081812fc14610148575b600080fd5b610114600480360381019061010f91906121c7565b61031c565b6040516101219190612cce565b60405180910390f35b6101326103fe565b60405161013f9190612ce9565b60405180910390f35b610162600480360381019061015d9190612219565b610490565b60405161016f9190612c3e565b60405180910390f35b610192600480360381019061018d919061218b565b610515565b005b6101ae60048036038101906101a99190612085565b61062d565b005b6101ca60048036038101906101c59190612085565b61068d565b005b6101e660048036038101906101e19190612219565b6106ad565b6040516101f39190612ce9565b60405180910390f35b61021660048036038101906102119190612219565b6107cb565b6040516102239190612c3e565b60405180910390f35b61024660048036038101906102419190612020565b61087d565b6040516102539190612f49565b60405180910390f35b610264610935565b6040516102719190612ce9565b60405180910390f35b610294600480360381019061028f919061214f565b6109c7565b005b6102b060048036038101906102ab91906120d4565b6109dd565b005b6102cc60048036038101906102c79190612219565b610a3f565b6040516102d99190612ce9565b60405180910390f35b6102ea610b91565b005b61030660048036038101906103019190612049565b610d33565b6040516103139190612cce565b60405180910390f35b60007f80ac58cd000000000000000000000000000000000000000000000000000000007bffffffffffffffffffffffffffffffffffffffffffffffffffffffff1916827bffffffffffffffffffffffffffffffffffffffffffffffffffffffff191614806103e757507f5b5e139f000000000000000000000000000000000000000000000000000000007bffffffffffffffffffffffffffffffffffffffffffffffffffffffff1916827bffffffffffffffffffffffffffffffffffffffffffffffffffffffff1916145b806103f757506103f682610e60565b5b9050919050565b60606000805461040d906131e8565b80601f0160208091040260200160405190810160405280929190818152602001828054610439906131e8565b80156104865780601f1061045b57610100808354040283529160200191610486565b820191906000526020600020905b81548152906001019060200180831161046957829003601f168201915b5050505050905090565b600061049b82610eca565b6104da576040517f08c379a00000000000000000000000000000000000000000000000000000000081526004016104d190612ea9565b60405180910390fd5b6004600083815260200190815260200160002060009054906101000a900473ffffffffffffffffffffffffffffffffffffffff169050919050565b6000610520826107cb565b90508073ffffffffffffffffffffffffffffffffffffffff168373ffffffffffffffffffffffffffffffffffffffff161415610591576040517f08c379a000000000000000000000000000000000000000000000000000000000815260040161058890612f09565b60405180910390fd5b8073ffffffffffffffffffffffffffffffffffffffff166105b0610f36565b73ffffffffffffffffffffffffffffffffffffffff1614806105df57506105de816105d9610f36565b610d33565b5b61061e576040517f08c379a000000000000000000000000000000000000000000000000000000000815260040161061590612de9565b60405180910390fd5b6106288383610f3e565b505050565b61063e610638610f36565b82610ff7565b61067d576040517f08c379a000000000000000000000000000000000000000000000000000000000815260040161067490612f29565b60405180910390fd5b6106888383836110d5565b505050565b6106a8838383604051806020016040528060008152506109dd565b505050565b606060006106e16106bd84611331565b6040516020016106cd9190612c1c565b6040516020818303038152906040526114de565b9050600880549050816106f49190613263565b905060088181548110610730577f4e487b7100000000000000000000000000000000000000000000000000000000600052603260045260246000fd5b906000526020600020018054610745906131e8565b80601f0160208091040260200160405190810160405280929190818152602001828054610771906131e8565b80156107be5780601f10610793576101008083540402835291602001916107be565b820191906000526020600020905b8154815290600101906020018083116107a157829003601f168201915b5050505050915050919050565b6000806002600084815260200190815260200160002060009054906101000a900473ffffffffffffffffffffffffffffffffffffffff169050600073ffffffffffffffffffffffffffffffffffffffff168173ffffffffffffffffffffffffffffffffffffffff161415610874576040517f08c379a000000000000000000000000000000000000000000000000000000000815260040161086b90612e29565b60405180910390fd5b80915050919050565b60008073ffffffffffffffffffffffffffffffffffffffff168273ffffffffffffffffffffffffffffffffffffffff1614156108ee576040517f08c379a00000000000000000000000000000000000000000000000000000000081526004016108e590612e09565b60405180910390fd5b600360008373ffffffffffffffffffffffffffffffffffffffff1673ffffffffffffffffffffffffffffffffffffffff168152602001908152602001600020549050919050565b606060018054610944906131e8565b80601f0160208091040260200160405190810160405280929190818152602001828054610970906131e8565b80156109bd5780601f10610992576101008083540402835291602001916109bd565b820191906000526020600020905b8154815290600101906020018083116109a057829003601f168201915b5050505050905090565b6109d96109d2610f36565b8383611511565b5050565b6109ee6109e8610f36565b83610ff7565b610a2d576040517f08c379a0000000000000000000000000000000000000000000000000000000008152600401610a2490612f29565b60405180910390fd5b610a398484848461167e565b50505050565b6060610a4a82610eca565b610a89576040517f08c379a0000000000000000000000000000000000000000000000000000000008152600401610a8090612e89565b60405180910390fd5b6000600660008481526020019081526020016000208054610aa9906131e8565b80601f0160208091040260200160405190810160405280929190818152602001828054610ad5906131e8565b8015610b225780601f10610af757610100808354040283529160200191610b22565b820191906000526020600020905b815481529060010190602001808311610b0557829003601f168201915b505050505090506000610b336116da565b9050600081511415610b49578192505050610b8c565b600082511115610b7e578082604051602001610b66929190612b62565b60405160208183030381529060405292505050610b8c565b610b87846116f1565b925050505b919050565b6000610b9d6007611798565b90506000610baa826106ad565b90506000600982604051602001610bc2929190612b86565b60405160208183030381529060405290506000610c0783610be2846117a6565b604051602001610bf3929190612bb5565b6040516020818303038152906040526117a6565b9050600081604051602001610c1c9190612bfa565b6040516020818303038152906040529050610c6b6040518060400160405280601581526020017f0a2d2d2d2d2d2d2d2d2d2d2d2d2d2d2d2d2d2d2d2d0000000000000000000000815250610dc7565b610c7481610dc7565b610cb26040518060400160405280601581526020017f2d2d2d2d2d2d2d2d2d2d2d2d2d2d2d2d2d2d2d2d0a0000000000000000000000815250610dc7565b610cbc3386611964565b610cc68582611982565b610ce96040518060600160405280602581526020016133be6025913986336119f6565b610cf36007611a95565b7f1c05098ed1ff38e6238d2b1b04b2c7977d4c94ce651bda6473f9dba8dbf01da03386604051610d24929190612ca5565b60405180910390a15050505050565b6000600560008473ffffffffffffffffffffffffffffffffffffffff1673ffffffffffffffffffffffffffffffffffffffff16815260200190815260200160002060008373ffffffffffffffffffffffffffffffffffffffff1673ffffffffffffffffffffffffffffffffffffffff16815260200190815260200160002060009054906101000a900460ff16905092915050565b610e5d81604051602401610ddb9190612ce9565b6040516020818303038152906040527f41304fac000000000000000000000000000000000000000000000000000000007bffffffffffffffffffffffffffffffffffffffffffffffffffffffff19166020820180517bffffffffffffffffffffffffffffffffffffffffffffffffffffffff8381831617835250505050611aab565b50565b60007f01ffc9a7000000000000000000000000000000000000000000000000000000007bffffffffffffffffffffffffffffffffffffffffffffffffffffffff1916827bffffffffffffffffffffffffffffffffffffffffffffffffffffffff1916149050919050565b60008073ffffffffffffffffffffffffffffffffffffffff166002600084815260200190815260200160002060009054906101000a900473ffffffffffffffffffffffffffffffffffffffff1673ffffffffffffffffffffffffffffffffffffffff1614159050919050565b600033905090565b816004600083815260200190815260200160002060006101000a81548173ffffffffffffffffffffffffffffffffffffffff021916908373ffffffffffffffffffffffffffffffffffffffff160217905550808273ffffffffffffffffffffffffffffffffffffffff16610fb1836107cb565b73ffffffffffffffffffffffffffffffffffffffff167f8c5be1e5ebec7d5bd14f71427d1e84f3dd0314c0f7b2291e5b200ac8c7c3b92560405160405180910390a45050565b600061100282610eca565b611041576040517f08c379a000000000000000000000000000000000000000000000000000000000815260040161103890612dc9565b60405180910390fd5b600061104c836107cb565b90508073ffffffffffffffffffffffffffffffffffffffff168473ffffffffffffffffffffffffffffffffffffffff1614806110bb57508373ffffffffffffffffffffffffffffffffffffffff166110a384610490565b73ffffffffffffffffffffffffffffffffffffffff16145b806110cc57506110cb8185610d33565b5b91505092915050565b8273ffffffffffffffffffffffffffffffffffffffff166110f5826107cb565b73ffffffffffffffffffffffffffffffffffffffff161461114b576040517f08c379a000000000000000000000000000000000000000000000000000000000815260040161114290612ec9565b60405180910390fd5b600073ffffffffffffffffffffffffffffffffffffffff168273ffffffffffffffffffffffffffffffffffffffff1614156111bb576040517f08c379a00000000000000000000000000000000000000000000000000000000081526004016111b290612d89565b60405180910390fd5b6111c6838383611ad4565b6111d1600082610f3e565b6001600360008573ffffffffffffffffffffffffffffffffffffffff1673ffffffffffffffffffffffffffffffffffffffff168152602001908152602001600020600082825461122191906130fe565b925050819055506001600360008473ffffffffffffffffffffffffffffffffffffffff1673ffffffffffffffffffffffffffffffffffffffff1681526020019081526020016000206000828254611278919061301d565b92505081905550816002600083815260200190815260200160002060006101000a81548173ffffffffffffffffffffffffffffffffffffffff021916908373ffffffffffffffffffffffffffffffffffffffff160217905550808273ffffffffffffffffffffffffffffffffffffffff168473ffffffffffffffffffffffffffffffffffffffff167fddf252ad1be2c89b69c2b068fc378daa952ba7f163c4a11628f55a4df523b3ef60405160405180910390a4505050565b60606000821415611379576040518060400160405280600181526020017f300000000000000000000000000000000000000000000000000000000000000081525090506114d9565b600082905060005b600082146113ab5780806113949061321a565b915050600a826113a49190613073565b9150611381565b60008167ffffffffffffffff8111156113ed577f4e487b7100000000000000000000000000000000000000000000000000000000600052604160045260246000fd5b6040519080825280601f01601f19166020018201604052801561141f5781602001600182028036833780820191505090505b5090505b600085146114d25760018261143891906130fe565b9150600a856114479190613263565b6030611453919061301d565b60f81b81838151811061148f577f4e487b7100000000000000000000000000000000000000000000000000000000600052603260045260246000fd5b60200101907effffffffffffffffffffffffffffffffffffffffffffffffffffffffffffff1916908160001a905350600a856114cb9190613073565b9450611423565b8093505050505b919050565b6000816040516020016114f19190612b4b565b6040516020818303038152906040528051906020012060001c9050919050565b8173ffffffffffffffffffffffffffffffffffffffff168373ffffffffffffffffffffffffffffffffffffffff161415611580576040517f08c379a000000000000000000000000000000000000000000000000000000000815260040161157790612da9565b60405180910390fd5b80600560008573ffffffffffffffffffffffffffffffffffffffff1673ffffffffffffffffffffffffffffffffffffffff16815260200190815260200160002060008473ffffffffffffffffffffffffffffffffffffffff1673ffffffffffffffffffffffffffffffffffffffff16815260200190815260200160002060006101000a81548160ff0219169083151502179055508173ffffffffffffffffffffffffffffffffffffffff168373ffffffffffffffffffffffffffffffffffffffff167f17307eab39ab6107e8899845ad3d59bd9653f200f220920489ca2b5937696c31836040516116719190612cce565b60405180910390a3505050565b6116898484846110d5565b61169584848484611ad9565b6116d4576040517f08c379a00000000000000000000000000000000000000000000000000000000081526004016116cb90612d49565b60405180910390fd5b50505050565b606060405180602001604052806000815250905090565b60606116fc82610eca565b61173b576040517f08c379a000000000000000000000000000000000000000000000000000000000815260040161173290612ee9565b60405180910390fd5b60006117456116da565b905060008151116117655760405180602001604052806000815250611790565b8061176f84611331565b604051602001611780929190612b62565b6040516020818303038152906040525b915050919050565b600081600001549050919050565b606060008251905060008114156117cf576040518060200160405280600081525091505061195f565b600060036002836117e0919061301d565b6117ea9190613073565b60046117f691906130a4565b90506000602082611807919061301d565b67ffffffffffffffff811115611846577f4e487b7100000000000000000000000000000000000000000000000000000000600052604160045260246000fd5b6040519080825280601f01601f1916602001820160405280156118785781602001600182028036833780820191505090505b50905060006040518060600160405280604081526020016133e3604091399050600181016020830160005b8681101561191c5760038101905062ffffff818a015116603f8160121c168401518060081b905060ff603f83600c1c1686015116810190508060081b905060ff603f8360061c1686015116810190508060081b905060ff603f831686015116810190508060e01b905080845260048401935050506118a3565b506003860660018114611936576002811461194657611951565b613d3d60f01b6002830352611951565b603d60f81b60018303525b508484525050819450505050505b919050565b61197e828260405180602001604052806000815250611c70565b5050565b61198b82610eca565b6119ca576040517f08c379a00000000000000000000000000000000000000000000000000000000081526004016119c190612e49565b60405180910390fd5b806006600084815260200190815260200160002090805190602001906119f1929190611eac565b505050565b611a90838383604051602401611a0e93929190612d0b565b6040516020818303038152906040527fe3849f79000000000000000000000000000000000000000000000000000000007bffffffffffffffffffffffffffffffffffffffffffffffffffffffff19166020820180517bffffffffffffffffffffffffffffffffffffffffffffffffffffffff8381831617835250505050611aab565b505050565b6001816000016000828254019250508190555050565b60008151905060006a636f6e736f6c652e6c6f679050602083016000808483855afa5050505050565b505050565b6000611afa8473ffffffffffffffffffffffffffffffffffffffff16611ccb565b15611c63578373ffffffffffffffffffffffffffffffffffffffff1663150b7a02611b23610f36565b8786866040518563ffffffff1660e01b8152600401611b459493929190612c59565b602060405180830381600087803b158015611b5f57600080fd5b505af1925050508015611b9057506040513d601f19601f82011682018060405250810190611b8d91906121f0565b60015b611c13573d8060008114611bc0576040519150601f19603f3d011682016040523d82523d6000602084013e611bc5565b606091505b50600081511415611c0b576040517f08c379a0000000000000000000000000000000000000000000000000000000008152600401611c0290612d49565b60405180910390fd5b805181602001fd5b63150b7a0260e01b7bffffffffffffffffffffffffffffffffffffffffffffffffffffffff1916817bffffffffffffffffffffffffffffffffffffffffffffffffffffffff191614915050611c68565b600190505b949350505050565b611c7a8383611cde565b611c876000848484611ad9565b611cc6576040517f08c379a0000000000000000000000000000000000000000000000000000000008152600401611cbd90612d49565b60405180910390fd5b505050565b600080823b905060008111915050919050565b600073ffffffffffffffffffffffffffffffffffffffff168273ffffffffffffffffffffffffffffffffffffffff161415611d4e576040517f08c379a0000000000000000000000000000000000000000000000000000000008152600401611d4590612e69565b60405180910390fd5b611d5781610eca565b15611d97576040517f08c379a0000000000000000000000000000000000000000000000000000000008152600401611d8e90612d69565b60405180910390fd5b611da360008383611ad4565b6001600360008473ffffffffffffffffffffffffffffffffffffffff1673ffffffffffffffffffffffffffffffffffffffff1681526020019081526020016000206000828254611df3919061301d565b92505081905550816002600083815260200190815260200160002060006101000a81548173ffffffffffffffffffffffffffffffffffffffff021916908373ffffffffffffffffffffffffffffffffffffffff160217905550808273ffffffffffffffffffffffffffffffffffffffff16600073ffffffffffffffffffffffffffffffffffffffff167fddf252ad1be2c89b69c2b068fc378daa952ba7f163c4a11628f55a4df523b3ef60405160405180910390a45050565b828054611eb8906131e8565b90600052602060002090601f016020900481019282611eda5760008555611f21565b82601f10611ef357805160ff1916838001178555611f21565b82800160010185558215611f21579182015b82811115611f20578251825591602001919060010190611f05565b5b509050611f2e9190611f32565b5090565b5b80821115611f4b576000816000905550600101611f33565b5090565b6000611f62611f5d84612f95565b612f64565b905082815260208101848484011115611f7a57600080fd5b611f858482856131a6565b509392505050565b600081359050611f9c81613361565b92915050565b600081359050611fb181613378565b92915050565b600081359050611fc68161338f565b92915050565b600081519050611fdb8161338f565b92915050565b600082601f830112611ff257600080fd5b8135612002848260208601611f4f565b91505092915050565b60008135905061201a816133a6565b92915050565b60006020828403121561203257600080fd5b600061204084828501611f8d565b91505092915050565b6000806040838503121561205c57600080fd5b600061206a85828601611f8d565b925050602061207b85828601611f8d565b9150509250929050565b60008060006060848603121561209a57600080fd5b60006120a886828701611f8d565b93505060206120b986828701611f8d565b92505060406120ca8682870161200b565b9150509250925092565b600080600080608085870312156120ea57600080fd5b60006120f887828801611f8d565b945050602061210987828801611f8d565b935050604061211a8782880161200b565b925050606085013567ffffffffffffffff81111561213757600080fd5b61214387828801611fe1565b91505092959194509250565b6000806040838503121561216257600080fd5b600061217085828601611f8d565b925050602061218185828601611fa2565b9150509250929050565b6000806040838503121561219e57600080fd5b60006121ac85828601611f8d565b92505060206121bd8582860161200b565b9150509250929050565b6000602082840312156121d957600080fd5b60006121e784828501611fb7565b91505092915050565b60006020828403121561220257600080fd5b600061221084828501611fcc565b91505092915050565b60006020828403121561222b57600080fd5b60006122398482850161200b565b91505092915050565b61224b81613132565b82525050565b61225a81613144565b82525050565b600061226b82612fda565b6122758185612ff0565b93506122858185602086016131b5565b61228e81613350565b840191505092915050565b60006122a482612fe5565b6122ae8185613001565b93506122be8185602086016131b5565b6122c781613350565b840191505092915050565b60006122dd82612fe5565b6122e78185613012565b93506122f78185602086016131b5565b80840191505092915050565b60008154612310816131e8565b61231a8186613012565b94506001821660008114612335576001811461234657612379565b60ff19831686528186019350612379565b61234f85612fc5565b60005b8381101561237157815481890152600182019150602081019050612352565b838801955050505b50505092915050565b600061238f601383613012565b91507f7b226e616d65223a2022557275677561792023000000000000000000000000006000830152601382019050919050565b60006123cf603283613001565b91507f4552433732313a207472616e7366657220746f206e6f6e20455243373231526560008301527f63656976657220696d706c656d656e74657200000000000000000000000000006020830152604082019050919050565b6000612435601c83613001565b91507f4552433732313a20746f6b656e20616c7265616479206d696e746564000000006000830152602082019050919050565b6000612475605483613012565b91507f222c20226465736372697074696f6e223a202254686520537769747a65726c6160008301527f6e64206f6620416d6572696361222c2022696d616765223a2022646174613a6960208301527f6d6167652f7376672b786d6c3b6261736536342c0000000000000000000000006040830152605482019050919050565b6000612501602483613001565b91507f4552433732313a207472616e7366657220746f20746865207a65726f2061646460008301527f72657373000000000000000000000000000000000000000000000000000000006020830152604082019050919050565b6000612567601983613001565b91507f4552433732313a20617070726f766520746f2063616c6c6572000000000000006000830152602082019050919050565b60006125a7602c83613001565b91507f4552433732313a206f70657261746f7220717565727920666f72206e6f6e657860008301527f697374656e7420746f6b656e00000000000000000000000000000000000000006020830152604082019050919050565b600061260d603883613001565b91507f4552433732313a20617070726f76652063616c6c6572206973206e6f74206f7760008301527f6e6572206e6f7220617070726f76656420666f7220616c6c00000000000000006020830152604082019050919050565b6000612673602a83613001565b91507f4552433732313a2062616c616e636520717565727920666f7220746865207a6560008301527f726f2061646472657373000000000000000000000000000000000000000000006020830152604082019050919050565b60006126d9602983613001565b91507f4552433732313a206f776e657220717565727920666f72206e6f6e657869737460008301527f656e7420746f6b656e00000000000000000000000000000000000000000000006020830152604082019050919050565b600061273f602e83613001565b91507f45524337323155524953746f726167653a2055524920736574206f66206e6f6e60008301527f6578697374656e7420746f6b656e0000000000000000000000000000000000006020830152604082019050919050565b60006127a5600283613012565b91507f227d0000000000000000000000000000000000000000000000000000000000006000830152600282019050919050565b60006127e5602083613001565b91507f4552433732313a206d696e7420746f20746865207a65726f20616464726573736000830152602082019050919050565b6000612825603183613001565b91507f45524337323155524953746f726167653a2055524920717565727920666f722060008301527f6e6f6e6578697374656e7420746f6b656e0000000000000000000000000000006020830152604082019050919050565b600061288b602c83613001565b91507f4552433732313a20617070726f76656420717565727920666f72206e6f6e657860008301527f697374656e7420746f6b656e00000000000000000000000000000000000000006020830152604082019050919050565b60006128f1602983613001565b91507f4552433732313a207472616e73666572206f6620746f6b656e2074686174206960008301527f73206e6f74206f776e00000000000000000000000000000000000000000000006020830152604082019050919050565b6000612957602f83613001565b91507f4552433732314d657461646174613a2055524920717565727920666f72206e6f60008301527f6e6578697374656e7420746f6b656e00000000000000000000000000000000006020830152604082019050919050565b60006129bd602183613001565b91507f4552433732313a20617070726f76616c20746f2063757272656e74206f776e6560008301527f72000000000000000000000000000000000000000000000000000000000000006020830152604082019050919050565b6000612a23601d83613012565b91507f646174613a6170706c69636174696f6e2f6a736f6e3b6261736536342c0000006000830152601d82019050919050565b6000612a63600e83613012565b91507f27202f3e3c2f673e3c2f7376673e0000000000000000000000000000000000006000830152600e82019050919050565b6000612aa3603183613001565b91507f4552433732313a207472616e736665722063616c6c6572206973206e6f74206f60008301527f776e6572206e6f7220617070726f7665640000000000000000000000000000006020830152604082019050919050565b6000612b09600583613012565b91507f434f4c4f520000000000000000000000000000000000000000000000000000006000830152600582019050919050565b612b458161319c565b82525050565b6000612b5782846122d2565b915081905092915050565b6000612b6e82856122d2565b9150612b7a82846122d2565b91508190509392505050565b6000612b928285612303565b9150612b9e82846122d2565b9150612ba982612a56565b91508190509392505050565b6000612bc082612382565b9150612bcc82856122d2565b9150612bd782612468565b9150612be382846122d2565b9150612bee82612798565b91508190509392505050565b6000612c0582612a16565b9150612c1182846122d2565b915081905092915050565b6000612c2782612afc565b9150612c3382846122d2565b915081905092915050565b6000602082019050612c536000830184612242565b92915050565b6000608082019050612c6e6000830187612242565b612c7b6020830186612242565b612c886040830185612b3c565b8181036060830152612c9a8184612260565b905095945050505050565b6000604082019050612cba6000830185612242565b612cc76020830184612b3c565b9392505050565b6000602082019050612ce36000830184612251565b92915050565b60006020820190508181036000830152612d038184612299565b905092915050565b60006060820190508181036000830152612d258186612299565b9050612d346020830185612b3c565b612d416040830184612242565b949350505050565b60006020820190508181036000830152612d62816123c2565b9050919050565b60006020820190508181036000830152612d8281612428565b9050919050565b60006020820190508181036000830152612da2816124f4565b9050919050565b60006020820190508181036000830152612dc28161255a565b9050919050565b60006020820190508181036000830152612de28161259a565b9050919050565b60006020820190508181036000830152612e0281612600565b9050919050565b60006020820190508181036000830152612e2281612666565b9050919050565b60006020820190508181036000830152612e42816126cc565b9050919050565b60006020820190508181036000830152612e6281612732565b9050919050565b60006020820190508181036000830152612e82816127d8565b9050919050565b60006020820190508181036000830152612ea281612818565b9050919050565b60006020820190508181036000830152612ec28161287e565b9050919050565b60006020820190508181036000830152612ee2816128e4565b9050919050565b60006020820190508181036000830152612f028161294a565b9050919050565b60006020820190508181036000830152612f22816129b0565b9050919050565b60006020820190508181036000830152612f4281612a96565b9050919050565b6000602082019050612f5e6000830184612b3c565b92915050565b6000604051905081810181811067ffffffffffffffff82111715612f8b57612f8a613321565b5b8060405250919050565b600067ffffffffffffffff821115612fb057612faf613321565b5b601f19601f8301169050602081019050919050565b60008190508160005260206000209050919050565b600081519050919050565b600081519050919050565b600082825260208201905092915050565b600082825260208201905092915050565b600081905092915050565b60006130288261319c565b91506130338361319c565b9250827fffffffffffffffffffffffffffffffffffffffffffffffffffffffffffffffff0382111561306857613067613294565b5b828201905092915050565b600061307e8261319c565b91506130898361319c565b925082613099576130986132c3565b5b828204905092915050565b60006130af8261319c565b91506130ba8361319c565b9250817fffffffffffffffffffffffffffffffffffffffffffffffffffffffffffffffff04831182151516156130f3576130f2613294565b5b828202905092915050565b60006131098261319c565b91506131148361319c565b92508282101561312757613126613294565b5b828203905092915050565b600061313d8261317c565b9050919050565b60008115159050919050565b60007fffffffff0000000000000000000000000000000000000000000000000000000082169050919050565b600073ffffffffffffffffffffffffffffffffffffffff82169050919050565b6000819050919050565b82818337600083830152505050565b60005b838110156131d35780820151818401526020810190506131b8565b838111156131e2576000848401525b50505050565b6000600282049050600182168061320057607f821691505b60208210811415613214576132136132f2565b5b50919050565b60006132258261319c565b91507fffffffffffffffffffffffffffffffffffffffffffffffffffffffffffffffff82141561325857613257613294565b5b600182019050919050565b600061326e8261319c565b91506132798361319c565b925082613289576132886132c3565b5b828206905092915050565b7f4e487b7100000000000000000000000000000000000000000000000000000000600052601160045260246000fd5b7f4e487b7100000000000000000000000000000000000000000000000000000000600052601260045260246000fd5b7f4e487b7100000000000000000000000000000000000000000000000000000000600052602260045260246000fd5b7f4e487b7100000000000000000000000000000000000000000000000000000000600052604160045260246000fd5b6000601f19601f8301169050919050565b61336a81613132565b811461337557600080fd5b50565b61338181613144565b811461338c57600080fd5b50565b61339881613150565b81146133a357600080fd5b50565b6133af8161319c565b81146133ba57600080fd5b5056fe416e204e465420772f20494420257320686173206265656e206d696e74656420746f2025734142434445464748494a4b4c4d4e4f505152535455565758595a6162636465666768696a6b6c6d6e6f707172737475767778797a303132333435363738392b2fa26469706673582212204aeec06cb337d775db74bb792525fcb488a73f4927358633625cf20bc3ba051664736f6c634300080000333c3f786d6c2076657273696f6e3d27312e302720656e636f64696e673d2769736f2d383835392d31273f3e3c21444f435459504520737667205055424c494320272d2f2f5733432f2f4454442053564720312e312f2f454e272027687474703a2f2f7777772e77332e6f72672f47726170686963732f5356472f312e312f4454442f73766731312e647464273e3c7376672076657273696f6e3d27312e31272069643d27436170615f312720786d6c6e733d27687474703a2f2f7777772e77332e6f72672f323030302f7376672720786d6c6e733a786c696e6b3d27687474703a2f2f7777772e77332e6f72672f313939392f786c696e6b2720783d273070782720793d27307078272077696474683d273332302e323031707827206865696768743d273332302e3230317078272076696577426f783d273020302032322e3230312032322e32303127207374796c653d27656e61626c652d6261636b67726f756e643a6e6577203020302032322e3230312032322e3230313b2720786d6c3a73706163653d277072657365727665273e3c673e3c7061746820643d274d31392e39382c392e383831632d302e322d302e3739312d302e3836372d312e32372d312e3634352d312e363835632d312e3738342d302e3935352d332e3231342d322e3435312d352e3034342d332e333935632d302e3733332d302e3337362d312e3039322d312e3531312d322e3230342d302e363936632d302e3230352c302e31352d302e3530392c302e3036362d302e3631342d302e3234354331302e3032312c322e3532332c382e382c312e3833322c372e3932342c302e38353443372e31392c302e3033332c362e3338332d302e3532392c352e3534322c302e373736632d302e32342c302e3337332d302e3534352c302e3133382d302e3739342c302e30303343332e3532322c302e3131352c332e312c302e3936362c322e3837362c312e38363843322e3431362c332e3733362c322e3235382c352e3636392c312e3633392c372e35313543312e3232372c382e3734312c312e3136362c31302e3033312c312e3437352c31312e3363302e3234372c312e30312c302e3131382c312e3833382d302e3539322c322e363835632d302e3834392c312e3031312d302e3836382c332e3037322d302e3137372c332e383563312e3038372c312e3232392c322e3033322c322e3637342c342e3130322c322e313863302e3735372d302e3138312c312e3434312c302e3430332c322e312c302e37393863312e3334352c302e3830362c322e37312c312e3333372c342e3335352c302e38343563302e3737382d302e3233342c312e3639312d302e3230392c322e3333332c302e35343463302e3531342c302c312e3032342c302c312e3533372c3063302e3638362d302e3832382c312e3731352d312e3035312c322e3632332d312e34383263322e3231332d312e3035312c332e3037332d322e3633332c322e3736312d352e303337632d302e3035382d302e3434382c302e3032372d302e39312c302e3032342d312e333635632d302e3030342d312e3133332c312e3630392d312e35362c312e3433312d322e3334344332312e3738382c31312e3136372c32302e3237362c31312e3035392c31392e39382c392e3838317a272066696c6c3d2723",
  "linkReferences": {},
  "deployedLinkReferences": {}
}